{
  "address": "0xcF56f8D2C13D130d400c3Fb2B0217e1C7D935fCF",
  "abi": [
    {
      "inputs": [],
      "stateMutability": "nonpayable",
      "type": "constructor"
    },
    {
      "inputs": [],
      "name": "Royal__NotEnoughEth",
      "type": "error"
    },
    {
      "inputs": [],
      "name": "Royal__NotEnoughToken",
      "type": "error"
    },
    {
      "inputs": [],
      "name": "Royal__NotPermitted",
      "type": "error"
    },
    {
      "anonymous": false,
      "inputs": [
        {
          "indexed": true,
          "internalType": "address",
          "name": "tokenAddress",
          "type": "address"
        },
        {
          "indexed": true,
          "internalType": "bytes32",
          "name": "_symbol",
          "type": "bytes32"
        }
      ],
      "name": "NewTokenListed",
      "type": "event"
    },
    {
      "inputs": [
        {
          "internalType": "bytes32",
          "name": "symbol",
          "type": "bytes32"
        },
        {
          "internalType": "uint256",
          "name": "amount",
          "type": "uint256"
        }
      ],
      "name": "depositOtherToken",
      "outputs": [],
      "stateMutability": "payable",
      "type": "function"
    },
    {
      "inputs": [],
      "name": "getListedTokenSymbols",
      "outputs": [
        {
          "internalType": "bytes32[]",
          "name": "",
          "type": "bytes32[]"
        }
      ],
      "stateMutability": "view",
      "type": "function"
    },
    {
      "inputs": [],
      "name": "getOwner",
      "outputs": [
        {
          "internalType": "address",
          "name": "",
          "type": "address"
        }
      ],
      "stateMutability": "view",
      "type": "function"
    },
    {
      "inputs": [
        {
          "internalType": "bytes32",
          "name": "_symbol",
          "type": "bytes32"
        }
      ],
      "name": "getTokenAddress",
      "outputs": [
        {
          "internalType": "address",
          "name": "",
          "type": "address"
        }
      ],
      "stateMutability": "view",
      "type": "function"
    },
    {
      "inputs": [],
      "name": "getTokenCount",
      "outputs": [
        {
          "internalType": "uint256",
          "name": "",
          "type": "uint256"
        }
      ],
      "stateMutability": "nonpayable",
      "type": "function"
    },
    {
      "inputs": [],
      "name": "recieve",
      "outputs": [],
      "stateMutability": "payable",
      "type": "function"
    },
    {
      "inputs": [
        {
          "internalType": "address",
          "name": "tokenAddress",
          "type": "address"
        },
        {
          "internalType": "bytes32",
          "name": "symbol",
          "type": "bytes32"
        }
      ],
      "name": "whiteListToken",
      "outputs": [],
      "stateMutability": "nonpayable",
      "type": "function"
    },
    {
      "inputs": [
        {
          "internalType": "uint256",
          "name": "amount",
          "type": "uint256"
        }
      ],
      "name": "withDrawEther",
      "outputs": [],
      "stateMutability": "payable",
      "type": "function"
    },
    {
      "inputs": [
        {
          "internalType": "bytes32",
          "name": "symbol",
          "type": "bytes32"
        },
        {
          "internalType": "uint256",
          "name": "amount",
          "type": "uint256"
        }
      ],
      "name": "withDrawToken",
      "outputs": [],
      "stateMutability": "payable",
      "type": "function"
    }
  ],
  "transactionHash": "0x7fb668d85f52b6a5f0e61717fd16d454bd95e02f556f14bb079aa3584eceae16",
  "args": [],
  "numDeployments": 2,
  "solcInputHash": "eb63e206e7619677690bd21d339ab2cb",
  "bytecode": "0x60a060405234801561001057600080fd5b503373ffffffffffffffffffffffffffffffffffffffff1660808173ffffffffffffffffffffffffffffffffffffffff16815250506000600381905550608051610db161006f6000396000818161051a01526107a30152610db16000f3fe6080604052600436106100865760003560e01c8063893d20e811610059578063893d20e814610119578063a9e10bf214610144578063b12e44101461014e578063caad5b181461018b578063e10bffbd146101a757610086565b80636a8995681461008b578063757febd4146100a757806378a89567146100d25780637fe636dc146100fd575b600080fd5b6100a560048036038101906100a0919061094b565b6101d0565b005b3480156100b357600080fd5b506100bc6102fe565b6040516100c99190610a49565b60405180910390f35b3480156100de57600080fd5b506100e7610356565b6040516100f49190610a7a565b60405180910390f35b6101176004803603810190610112919061094b565b610360565b005b34801561012557600080fd5b5061012e610516565b60405161013b9190610ad6565b60405180910390f35b61014c61053e565b005b34801561015a57600080fd5b5061017560048036038101906101709190610af1565b6105c7565b6040516101829190610ad6565b60405180910390f35b6101a560048036038101906101a09190610b1e565b610604565b005b3480156101b357600080fd5b506101ce60048036038101906101c99190610b77565b6107a1565b005b80600260003373ffffffffffffffffffffffffffffffffffffffff1673ffffffffffffffffffffffffffffffffffffffff168152602001908152602001600020600084815260200190815260200160002060008282546102309190610be6565b925050819055506001600083815260200190815260200160002060009054906101000a900473ffffffffffffffffffffffffffffffffffffffff1673ffffffffffffffffffffffffffffffffffffffff166323b872dd3330846040518463ffffffff1660e01b81526004016102a793929190610c3c565b602060405180830381600087803b1580156102c157600080fd5b505af11580156102d5573d6000803e3d6000fd5b505050506040513d601f19601f820116820180604052508101906102f99190610cab565b505050565b6060600080548060200260200160405190810160405280929190818152602001828054801561034c57602002820191906000526020600020905b815481526020019060010190808311610338575b5050505050905090565b6000600354905090565b80600260003373ffffffffffffffffffffffffffffffffffffffff1673ffffffffffffffffffffffffffffffffffffffff16815260200190815260200160002060008481526020019081526020016000205410156103ea576040517f8a7cb7f400000000000000000000000000000000000000000000000000000000815260040160405180910390fd5b80600260003373ffffffffffffffffffffffffffffffffffffffff1673ffffffffffffffffffffffffffffffffffffffff1681526020019081526020016000206000848152602001908152602001600020600082825461044a9190610cd8565b925050819055506001600083815260200190815260200160002060009054906101000a900473ffffffffffffffffffffffffffffffffffffffff1673ffffffffffffffffffffffffffffffffffffffff1663a9059cbb33836040518363ffffffff1660e01b81526004016104bf929190610d0c565b602060405180830381600087803b1580156104d957600080fd5b505af11580156104ed573d6000803e3d6000fd5b505050506040513d601f19601f820116820180604052508101906105119190610cab565b505050565b60007f0000000000000000000000000000000000000000000000000000000000000000905090565b34600260003373ffffffffffffffffffffffffffffffffffffffff1673ffffffffffffffffffffffffffffffffffffffff16815260200190815260200160002060007f4574680000000000000000000000000000000000000000000000000000000000815260200190815260200160002060008282546105be9190610be6565b92505081905550565b60006001600083815260200190815260200160002060009054906101000a900473ffffffffffffffffffffffffffffffffffffffff169050919050565b80600260003373ffffffffffffffffffffffffffffffffffffffff1673ffffffffffffffffffffffffffffffffffffffff16815260200190815260200160002060007f457468000000000000000000000000000000000000000000000000000000000081526020019081526020016000205410156106ae576040517f3279fdb600000000000000000000000000000000000000000000000000000000815260040160405180910390fd5b80600260003373ffffffffffffffffffffffffffffffffffffffff1673ffffffffffffffffffffffffffffffffffffffff16815260200190815260200160002060007f45746800000000000000000000000000000000000000000000000000000000008152602001908152602001600020600082825461072e9190610cd8565b925050819055503373ffffffffffffffffffffffffffffffffffffffff168160405161075990610d66565b60006040518083038185875af1925050503d8060008114610796576040519150601f19603f3d011682016040523d82523d6000602084013e61079b565b606091505b50505050565b7f000000000000000000000000000000000000000000000000000000000000000073ffffffffffffffffffffffffffffffffffffffff163373ffffffffffffffffffffffffffffffffffffffff1614610826576040517fc4cc1d8300000000000000000000000000000000000000000000000000000000815260040160405180910390fd5b816001600083815260200190815260200160002060006101000a81548173ffffffffffffffffffffffffffffffffffffffff021916908373ffffffffffffffffffffffffffffffffffffffff16021790555060016003600082825461088b9190610be6565b92505081905550808273ffffffffffffffffffffffffffffffffffffffff167fd79b7ed29df18f644c734a03165afa940154d6da45c4010dd2b104fd80aeece960405160405180910390a35050565b600080fd5b6000819050919050565b6108f2816108df565b81146108fd57600080fd5b50565b60008135905061090f816108e9565b92915050565b6000819050919050565b61092881610915565b811461093357600080fd5b50565b6000813590506109458161091f565b92915050565b60008060408385031215610962576109616108da565b5b600061097085828601610900565b925050602061098185828601610936565b9150509250929050565b600081519050919050565b600082825260208201905092915050565b6000819050602082019050919050565b6109c0816108df565b82525050565b60006109d283836109b7565b60208301905092915050565b6000602082019050919050565b60006109f68261098b565b610a008185610996565b9350610a0b836109a7565b8060005b83811015610a3c578151610a2388826109c6565b9750610a2e836109de565b925050600181019050610a0f565b5085935050505092915050565b60006020820190508181036000830152610a6381846109eb565b905092915050565b610a7481610915565b82525050565b6000602082019050610a8f6000830184610a6b565b92915050565b600073ffffffffffffffffffffffffffffffffffffffff82169050919050565b6000610ac082610a95565b9050919050565b610ad081610ab5565b82525050565b6000602082019050610aeb6000830184610ac7565b92915050565b600060208284031215610b0757610b066108da565b5b6000610b1584828501610900565b91505092915050565b600060208284031215610b3457610b336108da565b5b6000610b4284828501610936565b91505092915050565b610b5481610ab5565b8114610b5f57600080fd5b50565b600081359050610b7181610b4b565b92915050565b60008060408385031215610b8e57610b8d6108da565b5b6000610b9c85828601610b62565b9250506020610bad85828601610900565b9150509250929050565b7f4e487b7100000000000000000000000000000000000000000000000000000000600052601160045260246000fd5b6000610bf182610915565b9150610bfc83610915565b9250827fffffffffffffffffffffffffffffffffffffffffffffffffffffffffffffffff03821115610c3157610c30610bb7565b5b828201905092915050565b6000606082019050610c516000830186610ac7565b610c5e6020830185610ac7565b610c6b6040830184610a6b565b949350505050565b60008115159050919050565b610c8881610c73565b8114610c9357600080fd5b50565b600081519050610ca581610c7f565b92915050565b600060208284031215610cc157610cc06108da565b5b6000610ccf84828501610c96565b91505092915050565b6000610ce382610915565b9150610cee83610915565b925082821015610d0157610d00610bb7565b5b828203905092915050565b6000604082019050610d216000830185610ac7565b610d2e6020830184610a6b565b9392505050565b600081905092915050565b50565b6000610d50600083610d35565b9150610d5b82610d40565b600082019050919050565b6000610d7182610d43565b915081905091905056fea2646970667358221220fc9e88960ed9d7e985f74e98225d7bf69e2bcfc38f20a217b0ea4992fd8d10f464736f6c63430008090033",
  "devdoc": {
    "kind": "dev",
    "methods": {},
    "version": 1
  },
  "userdoc": {
    "kind": "user",
    "methods": {},
    "version": 1
  },
  "storageLayout": {
    "storage": [
      {
        "astId": 404,
        "contract": "contracts/Royal.sol:Royal",
        "label": "s_whiteListedTokenSymbols",
        "offset": 0,
        "slot": "0",
        "type": "t_array(t_bytes32)dyn_storage"
      },
      {
        "astId": 408,
        "contract": "contracts/Royal.sol:Royal",
        "label": "s_listedTokenAddress",
        "offset": 0,
        "slot": "1",
        "type": "t_mapping(t_bytes32,t_address)"
      },
      {
        "astId": 414,
        "contract": "contracts/Royal.sol:Royal",
        "label": "s_balances",
        "offset": 0,
        "slot": "2",
        "type": "t_mapping(t_address,t_mapping(t_bytes32,t_uint256))"
      },
      {
        "astId": 416,
        "contract": "contracts/Royal.sol:Royal",
        "label": "tokensCount",
        "offset": 0,
        "slot": "3",
        "type": "t_uint256"
      }
    ],
    "types": {
      "t_address": {
        "encoding": "inplace",
        "label": "address",
        "numberOfBytes": "20"
      },
      "t_array(t_bytes32)dyn_storage": {
        "base": "t_bytes32",
        "encoding": "dynamic_array",
        "label": "bytes32[]",
        "numberOfBytes": "32"
      },
      "t_bytes32": {
        "encoding": "inplace",
        "label": "bytes32",
        "numberOfBytes": "32"
      },
      "t_mapping(t_address,t_mapping(t_bytes32,t_uint256))": {
        "encoding": "mapping",
        "key": "t_address",
        "label": "mapping(address => mapping(bytes32 => uint256))",
        "numberOfBytes": "32",
        "value": "t_mapping(t_bytes32,t_uint256)"
      },
      "t_mapping(t_bytes32,t_address)": {
        "encoding": "mapping",
        "key": "t_bytes32",
        "label": "mapping(bytes32 => address)",
        "numberOfBytes": "32",
        "value": "t_address"
      },
      "t_mapping(t_bytes32,t_uint256)": {
        "encoding": "mapping",
        "key": "t_bytes32",
        "label": "mapping(bytes32 => uint256)",
        "numberOfBytes": "32",
        "value": "t_uint256"
      },
      "t_uint256": {
        "encoding": "inplace",
        "label": "uint256",
        "numberOfBytes": "32"
      }
    }
  }
}